:10000000C7C00000F4C00000F2C00000F0C0000053
:10001000EEC00000ECC00000EAC00000E8C0000034
:10002000E6C00000E4C00000E2C00000E0C0000044
:10003000DEC00000DCC00000DAC00000D8C0000054
:100040000C942D0CD4C000000C94560CD0C00000B1
:10005000CEC00000CCC00000CAC00000C8C0000074
:10006000C6C00000C4C00000C2C00000C0C0000084
:10007000BEC00000BCC000000C94600CB8C0000002
:10008000B6C00000B4C00000B2C000006E616E00D7
:10009000696E660000407A10F35A00A0724E18098B
:1000A0000010A5D4E80000E87648170000E40B54DF
:1000B000020000CA9A3B000000E1F50500008096AE
:1000C0009800000040420F000000A08601000000E0
:1000D000102700000000E80300000000640000009A
:1000E00000000A00000000000100000000002C7663
:1000F000D888DC674F0823DFC1DFAE59E1B1B7967E
:10010000E5E3E453C63AE651997696E8E6C28426DA
:10011000EB898C9B62ED407C6FFCEFBC9C9F40F2B6
:10012000BAA56FA5F490055A2AF75C936B6CF96732
:100130006DC11BFCE0E40D47FEF520E6B500D0EDF7
:10014000902E0300943577050080841E080000205F
:100150004E0A000000C80C333333330F986E1283FD
:100160001141EF8D2114893BE65516CFFEE6DB18D1
:10017000D1844B381BF77C1D901DA4BBE424203296
:1001800084725E228100C9F124ECA1E53D27170DA0
:1001900011241FBECFEFD0E1DEBFCDBF11E0A0E044
:1001A000B1E0E4E5F3E200E00BBF02C007900D927E
:1001B000A433B107D9F722E0A4E3B1E001C01D9256
:1001C000AD39B207E1F711E0C0E9D1E000E006C0C7
:1001D00022970109FE010BBF0E943C0ECE38D107C9
:1001E00080E00807A9F70E94A50C0C94A81108CF7D
:1001F0002F923F924F925F926F927F928F929F9237
:10020000AF92BF92CF92DF92EF92FF920F931F9324
:10021000CF93DF93CDB7DEB763970FB6F894DEBF09
:100220000FBECDBF7C011B016A01FC011782168243
:10023000838181FF66C3BE016F5F7F4F4B01F70172
:100240009381F10193FD859193FF81911F01882393
:1002500009F453C3853239F493FD859193FF81915D
:100260001F01853239F4B70190E00E941811560140
:100270006501E5CF10E0512C20E02032A0F48B3254
:1002800069F030F4803259F0833269F420612CC077
:100290008D3239F0803339F4216026C02260246029
:1002A00023C0286021C027FD27C030ED380F3A3029
:1002B00078F426FF06C0FAE01F9F300D1124132F9B
:1002C00013C06AE0569E300D1124532E20620CC0DC
:1002D0008E3221F426FD11C3206406C08C3611F441
:1002E000206802C0883641F4F10193FD859193FFA7
:1002F00081911F018111C1CF9BEB980F933018F4AE
:100300002061805E06C09BE9980F933008F0AAC177
:100310002F7E26FF16E02F73722E853621F4F22FE2
:10032000F0647F2E08C0863621F4622F6068762E36
:1003300002C01111115077FE07C01C3348F4442449
:100340004394410E27E00BC0183030F4212F06C033
:1003500027E04CE3442E03C027E017E0412C560170
:1003600074E0A70EB11CF6016081718182819381D6
:10037000042DA4010E942A106C01098100FF02C013
:1003800003FF06C071FC07C072FC08C0612C08C0E6
:100390003DE2632E05C02BE2622E02C090E2692E80
:1003A000802F8C7099F1662011F084E001C083E009
:1003B000851510F0512C0BC0581A73FC08C0B701FA
:1003C00080E290E00E9418115A94C9F7F3CF66209A
:1003D00029F0B701862D90E00E94181103FD03C09B
:1003E00000E910E002C00CE810E0F72DF0717F2E5C
:1003F000F8018491882309F476C271108052B70104
:1004000090E00E9418110F5F1F4FF2CF77FE0FC0D0
:100410004C0C04FF04C08A81813309F44A941414FB
:1004200074F5F8E0F41578F588E0482E2CC076FCD9
:100430002AC0812F90E08C159D059CF06CEFC616AC
:100440006FEFD60674F0772D7068772E0AC0E2E061
:10045000F0E0EC0FFD1FE10FF11D8081803319F4F6
:1004600011501111F4CF77FE0EC044244394410E75
:10047000812F90E0C816D9062CF41C1904C044241E
:10048000439401C010E077FE07C01C141D043CF427
:1004900096012F5F3F4F05C025E030E002C021E00C
:1004A00030E0662011F02F5F3F4F112331F0412FD4
:1004B00050E04F5F5F4F240F351F452D50E024174C
:1004C000350714F4521A01C0512C872D897049F454
:1004D000552039F0B70180E290E00E9418115A943B
:1004E000F7CF662029F0B701862D90E00E94181101
:1004F00073FC09C0552039F0B70180E390E00E94F9
:1005000018115A94F7CF77FE5FC09C2D8D2DD7FE22
:1005100002C090E080E0692E782E40E050E0C601F5
:10052000841991099D878C87960126193709280D12
:10053000391D812F90E0EE27FF27E81BF90BFF877D
:10054000EE87FFEF6F167F0669F4B7018EE290E049
:100550002B8B3A8B488B598B0E94181159894889EB
:100560003A892B89C614D70454F06C857D856615AD
:1005700077052CF4F901E40FF51F818101C080E3B8
:1005800071E0671A71084F5F5F4FEE85FF856E1649
:100590007F066CF0B70190E02B8B3A8B488B598B20
:1005A0000E9418112B893A8948895989CACF6C143D
:1005B0007D0439F49A81963318F4953311F404FFCD
:1005C00081E3B70190E04BC08A81813309F00F7E4F
:1005D000B70190E00E941811111105C074FE18C0F7
:1005E00085E490E017C0B7018EE290E00E941811F8
:1005F00082E066246394680EF401E80FF11D8081A7
:10060000B70190E00E941811115041F3862DF1CFEF
:1006100085E690E0B7010E941811D7FC05C0C1140F
:10062000D10439F404FF05C0D194C194D1088DE2FE
:1006300001C08BE2B70190E00E94181180E36AE0EC
:10064000C616D1042CF08F5FFAE0CF1AD108F7CF8D
:10065000B70190E00E941811B701C601C0960E9430
:10066000181141C1833631F0833779F0833509F0B1
:1006700058C021C0560172E0A70EB11CF60180815E
:10068000898301E010E0640114C05601F2E0AF0E6E
:10069000B11CF601C080D18026FF03C0612F70E03D
:1006A00002C06FEF7FEFC6012B8B0E940D118C01F2
:1006B0002B892F7715C05601F2E0AF0EB11CF60161
:1006C000C080D18026FF03C0612F70E002C06FEFB1
:1006D0007FEFC6012B8B0E9402118C012B892068B1
:1006E000722E23FD1AC0852D90E008171907A8F473
:1006F000B70180E290E00E9418115A94F4CFF601FD
:1007000077FC859177FE81916F01B70190E00E949F
:10071000181151105A94015011090115110579F75A
:10072000E2C0843611F0893651F5560127FF09C021
:10073000F4E0AF0EB11CF60160817181828193817A
:100740000AC0F2E0AF0EB11CF6016081718188270A
:1007500077FD8095982F022F0F7697FF08C0909510
:100760008095709561957F4F8F4F9F4F00682AE06D
:1007700030E0A4010E944A11C82EC8183EC0022FC2
:10078000853721F40F7E2AE030E01DC0097F8F36C7
:1007900091F018F4883559F0B0C0803719F08837D7
:1007A00011F0ABC0006104FF09C0046007C024FF62
:1007B00008C0066006C028E030E005C020E130E057
:1007C00002C020E132E0560107FF09C0F4E0AF0E9D
:1007D000B11CF601608171818281938108C0F2E0D1
:1007E000AF0EB11CF6016081718180E090E0A40140
:1007F0000E944A11C82EC8180F7706FF0BC0202F81
:100800002E7FC11650F404FF0AC002FD08C0202F3D
:100810002E7E05C0DC2C202F03C0DC2C01C0D12E85
:1008200024FF0DC0FE01EC0DF11D8081803311F419
:10083000297E09C022FF06C0D394D39404C0822F1E
:10084000867809F0D39423FD13C020FF06C01C2D29
:10085000D51418F4150D1D19D52CD51468F4B7014D
:1008600080E290E02B8B0E941811D3942B89F5CF56
:10087000D51410F45D1801C0512C24FF12C0B7012B
:1008800080E390E02B8B0E9418112B8922FF17C068
:1008900021FF03C088E590E002C088E790E0B7013F
:1008A0000CC0822F867859F021FD02C080E201C081
:1008B0008BE227FD8DE2B70190E00E941811C1166E
:1008C00038F4B70180E390E00E9418111150F7CF7F
:1008D000CA94F401EC0DF11D8081B70190E00E94F3
:1008E0001811C110F5CF552009F4C2CCB70180E230
:1008F00090E00E9418115A94F6CFF70186819781F3
:1009000002C08FEF9FEF63960FB6F894DEBF0FBE65
:10091000CDBFDF91CF911F910F91FF90EF90DF90AE
:10092000CF90BF90AF909F908F907F906F905F908F
:100930004F903F902F900895DC01ED91FC9111971D
:10094000229114968C91282320830895AF92BF9210
:10095000CF92EF92FF920F931F93FC0171836083FC
:10096000578346833187208713830283F582E4828D
:10097000C486B386A2861F910F91FF90EF90CF900F
:10098000BF90AF900895CF93DF93EC018A819B8154
:10099000D3DF60E08A819B8133D78E819F81CCDF5A
:1009A00060E08E819F812CD7A885B985ED91FC915F
:1009B0001197829113969C91892B808360E08885A2
:1009C00099851ED7AC81BD81ED91FC9111978291E3
:1009D00013969C91892B808361E08C819D8110D737
:1009E000EA81FB816281888199811AD72FEF33E0F8
:1009F000A901481B590BCA01DF91CF910895CF93EC
:100A0000DF93EC018885998597DF60E0888599857B
:100A1000F7D68C819D8190DF60E08C819D81F0D63E
:100A2000AA81BB81ED91FC911197829113969C91C3
:100A3000892B808360E08A819B81E2D6AE81BF8171
:100A4000ED91FC911197829113969C91892B808353
:100A500061E08E819F81D4D6EC81FD8162818881A5
:100A60009981DED62FEF33E0A901481B590BCA014B
:100A7000DF91CF910895CF92DF92EF92FF920F9383
:100A80001F93CF93DF93EC01AE81BF81ED91FC9179
:100A90001197829113969C91892B808360E08E81BF
:100AA0009F81AED6A885B985ED91FC911197829171
:100AB00013969C91892B808361E088859985A0D6C7
:100AC0008A819B8139DF60E08A819B8199D68C8104
:100AD0009D8132DF60E08C819D8192D6EA81FB812D
:100AE0006281888199819CD68C01EC81FD81628133
:100AF0008881998195D6BC018A859B85892B09F4CB
:100B000042C0882777FD8095982F0E943B0F6B018C
:100B10007C01B801882777FD8095982F0E943B0FB4
:100B20009B01AC01C701B6010E94A50E20E030E098
:100B300040E85FE30E94400E6B017C01CE0123DFA1
:100B4000BC0180E090E00E94390F9B01AC01C7011D
:100B5000B6010E94C70F6B017C016A857B8580E02E
:100B600090E00E94390F9B01AC01C701B6010E94C1
:100B7000C70F20E030E040E85AE30E94C70F0E9410
:100B80000D0FCB0105C0C801861B970B81509C4FF0
:100B9000DF91CF911F910F91FF90EF90DF90CF9059
:100BA00008954F925F926F927F928F929F92AF9231
:100BB000BF92CF92DF92EF92FF920F931F93CF934A
:100BC000DF93EC015B016A01490155DF7C0100976D
:100BD00011F480E04EC0CE01D6DE8C01CE01D3DE12
:100BE0002C0180179107A9F7CE0109DF3C01CE0146
:100BF00006DF8C018615970561F72BE7421623E087
:100C0000520638F70F978F33934018F79201A0E4FC
:100C1000B1E00E94230E2AE733E040E050E0F1D734
:100C200029013A01980140E050E02F503109410973
:100C30005109A0EFB0E00E94320E2EE333E040E015
:100C400050E0DFD78C85F50181110AC03183208304
:100C500080E491E084199509F6019183808305C0B1
:100C600051824082F60131832083F401F182E082D7
:100C700081E0DF91CF911F910F91FF90EF90DF9076
:100C8000CF90BF90AF909F908F907F906F905F902C
:100C90004F900895FC017187608753874287FFEF6B
:100CA00029EF80E0F15020408040E1F700C00000D3
:100CB00080B7886080BF83B7856083BF87B7816056
:100CC00087BF78940895CF93DF93EC016881798191
:100CD0008A819B816F5F7F4F8F4F9F4F688379839E
:100CE0008A839B836115710581059105D1F02CE301
:100CF00030E040E050E085D7672B682B692B89F402
:100D00004C815D816E817F814F5F5F4F6F4F7F4F61
:100D10004C835D836E837F83EA85FB85309709F082
:100D20000995E885F985309719F0DF91CF910994FD
:100D3000DF91CF91089585EB88BB87EC87BB80E579
:100D40008DB9709A08958FB9779BFECF08951F9340
:100D5000CF93DF93EC01162F60E08C819D8150D5FD
:100D600060E0888199814CD5812FEDDF61E0888139
:100D7000998146D561E08C819D81DF91CF911F9152
:100D80003FC5CF92DF92FF920F931F93CF93DF93D4
:100D900000D000D01F92CDB7DEB76C01F62E6AE20C
:100DA0002B833A834D835C837983D1DF60E0F60146
:100DB0008481958125D57981872FC5DF8F2DC3DF6C
:100DC00061E0F601848195811BD560E0F6018481A4
:100DD000958116D53A81832FB6DF2B81822FB3DF21
:100DE00061E0F601848195810BD56BE2C601AFDF2E
:100DF00060E0F6018481958103D55C81852FA3DFB6
:100E00004D81842FA0DF61E0F60184819581F8D4C3
:100E100060E0F60184819581F3D4812F94DF802FE7
:100E200092DF61E0F60184819581EAD46CE2C6012B
:100E30000F900F900F900F900F90DF91CF911F9117
:100E40000F91FF90DF90CF9082CFCF93DF93EC0193
:100E500061E08A819B81D4D42FEF89EF90E021500B
:100E600080409040E1F700C0000060E08A819B81F3
:100E7000C7D42FEF89EF90E0215080409040E1F7F8
:100E800000C0000061E08A819B81BAD42FEF89EF16
:100E900090E0215080409040E1F700C00000DF91D9
:100EA000CF910895CF93DF93EC0161E08A819B811C
:100EB000A7D480E491E09F838E8380EF90E09987B0
:100EC0008887CE01C2DF61E0CE0141DF8FE39CE97C
:100ED0000197F1F700C000006BECCE0138DF60E055
:100EE0008C819D818DD489E32EDF61E08C819D8191
:100EF00087D460E08C819D8183D48CE224DF61E023
:100F00008C819D817DD460E08C819D8179D480E04D
:100F10001ADF61E08C819D8173D460E08C819D81BA
:100F20006FD484E310DF61E08C819D8169D460E03F
:100F30008C819D8165D482E006DF61E08C819D819A
:100F40005FD46FECCE0103DF60E08C819D8158D4CB
:100F500080E0F9DE61E08C819D8152D460E08C817B
:100F60009D814ED481ECEFDE61E08C819D8148D47F
:100F700060E08C819D8144D480E3E5DE61E08C817A
:100F80009D813ED468EECE01E2DE60E08C819D81E1
:100F900037D485E8D8DE61E08C819D8131D460E072
:100FA0008C819D812DD480E0CEDE61E08C819D819D
:100FB00027D460E08C819D8123D488E7C4DE61E082
:100FC0008C819D811DD46AEECE01C1DE60E08C81F2
:100FD0009D8116D480E0B7DE61E08C819D8110D4C4
:100FE00060E08C819D810CD480E0ADDE61E08C817D
:100FF0009D8106D46DEECE01AADE60E08C819D81DC
:10100000FFD384E6A0DE61E08C819D81F9D360E0AE
:101010008C819D81F5D383E096DE61E08C819D819A
:10102000EFD360E08C819D81EBD382E18CDE61E0C7
:101030008C819D81E5D360E08C819D81E1D381E845
:1010400082DE61E08C819D81DBD367EFCE017FDEA4
:1010500060E08C819D81D4D380E275DE61E08C817B
:101060009D81CED360ECCE0172DE60E08C819D81EB
:10107000C7D383E268DE61E08C819D81C1D361ECDE
:10108000CE0165DE60E08C819D81BAD380E15BDEBC
:1010900061E08C819D81B4D365ECCE0158DE60E0C7
:1010A0008C819D81ADD38EE34EDE61E08C819D818C
:1010B000A7D360E08C819D81A3D388E244DE61E008
:1010C0008C819D819DD367ECCE0141DE60E08C81F7
:1010D0009D8196D386E837DE61E08C819D8190D337
:1010E00066E3CE0134DE60E08C819D8189D388E4A3
:1010F0002ADE61E08C819D8183D36AE3CE0127DE05
:1011000060E08C819D817CD385E51DDE61E08C8172
:101110009D8176D361EBCE011ADE60E08C819D81EA
:101120006FD380E010DE61E08C819D8169D360E047
:101130008C819D8165D388E106DE61E08C819D8193
:101140005FD366EBCE0103DE60E08C819D8158D3D6
:1011500088E0F9DD61E08C819D8152D360E08C8173
:101160009D814ED382E8EFDD61E08C819D8148D383
:1011700060E08C819D8144D387E2E5DD61E08C8174
:101180009D813ED362EFCE01E2DD60E08C819D81E6
:1011900037D380E0D8DD61E08C819D8131D366E278
:1011A000CE01D5DD60E08C819D812AD381E0CBDD4D
:1011B00061E08C819D8124D360EECE01C8DD60E0CA
:1011C0008C819D811DD38FE0BEDD61E08C819D818E
:1011D00017D360E08C819D8113D381E3B4DD61E09E
:1011E0008C819D810DD360E08C819D8109D38BE240
:1011F000AADD61E08C819D8103D360E08C819D81BB
:10120000FFD28CE0A0DD61E08C819D81F9D260E0AD
:101210008C819D81F5D28EE096DD61E08C819D818F
:10122000EFD260E08C819D81EBD288E08CDD61E0C3
:101230008C819D81E5D260E08C819D81E1D28EE43C
:1012400082DD61E08C819D81DBD260E08C819D81BB
:10125000D7D281EF78DD61E08C819D81D1D260E0D1
:101260008C819D81CDD287E36EDD61E08C819D8193
:10127000C7D260E08C819D81C3D287E064DD61E0EC
:101280008C819D81BDD260E08C819D81B9D280E14D
:101290005ADD61E08C819D81B3D260E08C819D81BB
:1012A000AFD283E050DD61E08C819D81A9D260E006
:1012B0008C819D81A5D28EE046DD61E08C819D818F
:1012C0009FD260E08C819D819BD289E03CDD61E012
:1012D0008C819D8195D260E08C819D8191D280E04E
:1012E00032DD61E08C819D818BD261EECE012FDDFC
:1012F00060E08C819D8184D280E025DD61E08C817D
:101300009D817ED260E08C819D817AD28EE01BDD52
:1013100061E08C819D8174D260E08C819D8170D26E
:1013200084E111DD61E08C819D816AD260E08C8175
:101330009D8166D283E007DD61E08C819D8160D272
:1013400060E08C819D815CD281E1FDDC61E08C817B
:101350009D8156D260E08C819D8152D287E0F3DC82
:1013600061E08C819D814CD260E08C819D8148D26E
:1013700081E3E9DC61E08C819D8142D260E08C8177
:101380009D813ED281ECDFDC61E08C819D8138D291
:1013900060E08C819D8134D288E4D5DC61E08C8171
:1013A0009D812ED260E08C819D812AD288E0CBDCA9
:1013B00061E08C819D8124D260E08C819D8120D26E
:1013C0008FE0C1DC61E08C819D811AD260E08C816C
:1013D0009D8116D28CE0B7DC61E08C819D8110D2BA
:1013E00060E08C819D810CD281E3ADDC61E08C8179
:1013F0009D8106D260E08C819D8102D286E3A3DCD0
:1014000061E08C819D81FCD160E08C819D81F8D16F
:101410008FE099DC61E08C819D81F2D161E1CE01A8
:1014200096DC9FEF2BED85E0915020408040E1F766
:1014300000C0000069E2CE01DF91CF9188CCEF922D
:10144000FF920F931F93CF93DF93EC01F22EE32EC5
:10145000EE81FF816E177F07F0F4E885F9854E175E
:101460005F07C8F48A010F5F1F4F9B012F5F3F4F3B
:1014700088DC60E08C819D81C3D18E2D64DC8F2D52
:1014800062DC61E08C819D81DF91CF911F910F9192
:10149000FF90EF90B5C1DF91CF911F910F91FF9019
:1014A000EF9008952F923F924F925F926F927F92AA
:1014B0008F929F92AF92BF92CF92DF92EF92FF9264
:1014C0000F931F93CF93DF9300D000D000D0CDB700
:1014D000DEB75C016B015E834D8329011C830B83A6
:1014E0003701041B150B7901E61AF70A17FF07C02D
:1014F00011950195110922242A94322C03C022242B
:101500002394312CF7FE08C0F194E194F1082FEFF9
:101510003FEF3A83298304C081E090E09A83898376
:10152000000F111FEE0CFF1C93014D815E81B6016F
:10153000C50185DF0E151F0504F5C7019595879533
:101540004801881A990AC414D504D1F197FC08C03F
:10155000ED81FE81E20DF31DFE83ED838E189F0861
:1015600029813A81C20ED31E800E911E93014D81B6
:101570005E81B601C50163DFE6CFC8019595879509
:101580004701881A990A2D813E818B819C812817F9
:101590003907B1F097FC06C089819A81C80ED91E1F
:1015A000801A910AED81FE81E20DF31DFE83ED8329
:1015B0008E0C9F1C9301AF01B601C50140DFE3CF44
:1015C00026960FB6F894DEBF0FBECDBFDF91CF9148
:1015D0001F910F91FF90EF90DF90CF90BF90AF9051
:1015E0009F908F907F906F905F904F903F902F9043
:1015F00008954F925F926F927F928F929F92AF92D7
:10160000BF92CF92DF92EF92FF920F931F93CF93EF
:10161000DF932C013B015A016901E801C60ED71E78
:101620008A0196013FDFCA0DDB1D8E019601AE01D6
:10163000B301C20137DF9301A501B301C20132DF5B
:101640009601A501B601C2012DDFDF91CF911F9157
:101650000F91FF90EF90DF90CF90BF90AF909F9051
:101660008F907F906F905F904F900895AF92BF9250
:10167000CF92DF92EF92FF920F931F93CF93DF935E
:10168000EC01690158012E813F816217730708F050
:1016900041C0888599854817590708F03BC0F60175
:1016A0003197E60FF71FE217F30718F06901C61A22
:1016B000D70A950121503109240F351F2817390702
:1016C00018F05C01A41AB50A8A01015011090A0D2B
:1016D0001B1D9B01215031092C0D3D1DCE0151DBFD
:1016E000A114B104B9F086010115110579F060E08B
:1016F0008C819D8185D08F2D26DB8E2D24DB61E0B2
:101700008C819D817DD001501109EECF81E0A81A16
:10171000B108E6CFDF91CF911F910F91FF90EF902D
:10172000DF90CF90BF90AF900895EF92FF920F930C
:101730001F93213031F498011F910F91FF90EF908A
:101740007ECE30E07801890191DF1F910F91FF90EB
:10175000EF900895EF92FF920F931F93FC01008585
:101760001185268137817B0140E050E060E070E028
:101770007DDF1F910F91FF90EF9008951F93CF93FE
:10178000DF93EC01162F66E3E2DA113089F050F0B6
:101790001230A1F0133081F560E08C819D8130D052
:1017A00088EE1DC060E08C819D812AD088E40BC04A
:1017B00060E08C819D8124D088E211C060E08C8142
:1017C0009D811ED088E8BFDA61E08C819D8118D0B0
:1017D00080EF90E09F838E8380E491E00BC0B3DACA
:1017E00061E08C819D810CD080E491E09F838E83A9
:1017F00080EF90E099878887DF91CF911F910895BE
:10180000DC01ED91FC9111978081662321F0139604
:101810009C91892B03C014969C9189238083089501
:10182000FC01208121110AC027E826B921E020838C
:101830008FE99FE00197F1F700C00000606C67B985
:10184000369A3699FECF84B125B190E0922B089557
:10185000089581E08093320108951F920F920FB690
:101860000F9211240BB60F922F933F934F935F93D8
:101870006F937F938F939F93AF93BF93EF93FF9358
:1018800081E992E020DAFF91EF91BF91AF919F91B2
:101890008F917F916F915F914F913F912F910F9019
:1018A0000BBE0F900FBE0F901F9018951F920F92B6
:1018B0000FB60F9211240F900FBE0F901F90189526
:1018C0001F920F920FB60F9211240BB60F922F9307
:1018D0008F939F93EF93FF93CF93DF931F92CDB797
:1018E000DEB780919C00898380913401909135010D
:1018F0008F3F91057CF42981FC01EA5CFE4F208337
:1019000001969093350180933401FC01EA5CFE4F0F
:10191000108209C0109235011092340189818093A0
:1019200036011092370181E0809332010F90DF91F0
:10193000CF91FF91EF919F918F912F910F900BBEBF
:101940000F900FBE0F901F901895CF93DF9300D08C
:1019500000D000D0CDB7DEB7EED948E25CE069E256
:101960007CE081E992E096D987E492E09BDA60E03E
:1019700087E492E003DF61E070E087E492E0EADE72
:1019800090E0C92E91E0D92EF601068117812481BD
:1019900035814281538160817181EE24EA94FE2C6D
:1019A00087E492E026DEFAE0CF0ED11C82E3C8166F
:1019B00081E0D80649F71E821D821C821B821A8292
:1019C00019829E012F5F3F4FAE014D5F5F4FBE01F9
:1019D0006B5F7F4F8AE392E0E4D8882309F14B8163
:1019E0005C816D817E8144365105A0F468377105B4
:1019F00068F461E089E592E003DFE5E3EA95F1F759
:101A0000000060E089E592E0FBDE0AC087E492E036
:101A100049DA06C000E018EF24E087E492E085DEB2
:101A200080913201882339F210923201C4CF9F9203
:101A3000AF92BF92CF92DF92EF92FF920F931F93DC
:101A4000CF93DF9310929A021092990210929C0207
:101A500010929B021092900224E0B22EB092830268
:101A600031E8C32E32E0D32E85E390E0F601918376
:101A7000808320E1209384022FEE20938502A49A94
:101A800055E050937E024CE7E42E42E0F42EF7013D
:101A90009183808340E240937F023FED3093800248
:101AA000A59A26E02093790207E712E0F8019183D6
:101AB000808380E480937A028FEB80937B02A69AE6
:101AC00062E0A62EA092740282E690E090937302E8
:101AD00080937202B09275027BEF972E90927602FD
:101AE000E1E6F0E020812460208323E020936F0270
:101AF00090936E0280936D0288E08093700287EF6E
:101B00008093710280818860808310926A02CBE3A7
:101B1000D0E0D0936902C093680281E080936B02A9
:101B20009EEF90936C02D09A80936502D0936402EA
:101B3000C0936302A09266028DEF80936702D19AF0
:101B400050936002D0935F02C0935E0240936102A3
:101B500030936202D59A61E08EE592E051DEA09268
:101B60005B02D0935A02C0935902B0925C029092E9
:101B70005D02D29A80E190E09093540280935302E8
:101B800080E391E09093560280935502909358021F
:101B900080935702D0924802C0924702F0924A02C4
:101BA000E092490210934C0200934B02A12CB12CFD
:101BB000C12CEDE6EE2EE2E0FE2E02E712E023E677
:101BC00032E048E652E060E972E08AE392E00E9487
:101BD000A60486E892E0909339028093380280E36D
:101BE00090E09093370280933602DF91CF911F915E
:101BF0000F91FF90EF90DF90CF90BF90AF909F90AC
:101C00000895A1E21A2EAA1BBB1BFD010DC0AA1F3D
:101C1000BB1FEE1FFF1FA217B307E407F50720F055
:101C2000A21BB30BE40BF50B661F771F881F991FD0
:101C30001A9469F760957095809590959B01AC0119
:101C4000BD01CF010895A29FB001B39FC001A39F22
:101C5000700D811D1124911DB29F700D811D1124E5
:101C6000911D0895F0DFA59F900DB49F900DA49F46
:101C7000800D911D112408950790F691E02D09948F
:101C80005058BB27AA270ED048C139D130F03ED1D9
:101C900020F031F49F3F11F41EF42EC10EF4E095B4
:101CA000E7FB24C1E92F4AD180F3BA176207730713
:101CB0008407950718F071F49EF562C10EF4E09563
:101CC0000B2EBA2FA02D0B01B90190010C01CA01F6
:101CD000A0011124FF27591B99F0593F50F4503EA1
:101CE00068F11A16F040A22F232F342F4427585F93
:101CF000F3CF469537952795A795F0405395C9F7AB
:101D00007EF41F16BA0B620B730B840BBAF0915062
:101D1000A1F0FF0FBB1F661F771F881FC2F70EC001
:101D2000BA0F621F731F841F48F4879577956795D4
:101D3000B795F7959E3F08F0B3CF9395880F08F0BD
:101D40009927EE0F9795879508950CD0E6C0DED0C1
:101D500040F0D5D030F021F45F3F19F0C7C05111E9
:101D600010C1CAC0EBD098F39923C9F35523B1F33E
:101D7000951B550BBB27AA2762177307840738F0FA
:101D80009F5F5F4F220F331F441FAA1FA9F333D059
:101D90000E2E3AF0E0E830D091505040E695001C0D
:101DA000CAF729D0FE2F27D0660F771F881FBB1FC9
:101DB000261737074807AB07B0E809F0BB0B802DA3
:101DC000BF01FF2793585F4F2AF09E3F510568F0EF
:101DD0008DC0D7C05F3FECF3983EDCF386957795D6
:101DE0006795B795F7959F5FC9F7880F911D9695F1
:101DF000879597F90895E1E0660F771F881FBB1F4D
:101E0000621773078407BA0720F0621B730B840BF9
:101E1000BA0BEE1F88F7E095089598D088F09F5789
:101E200090F0B92F9927B751A0F0D1F0660F771F26
:101E3000881F991F1AF0BA95C9F712C0B13081F006
:101E40009FD0B1E008959CC0672F782F8827B85F96
:101E500039F0B93FCCF3869577956795B395D9F767
:101E60003EF490958095709561957F4F8F4F9F4F71
:101E70000895E89409C097FB3EF49095809570957D
:101E800061957F4F8F4F9F4F9923A9F0F92F96E9C6
:101E9000BB279395F695879577956795B795F1113B
:101EA000F8CFFAF4BB0F11F460FF1BC06F5F7F4FD8
:101EB0008F4F9F4F16C0882311F096E911C07723EA
:101EC00021F09EE8872F762F05C0662371F096E8F3
:101ED000862F70E060E02AF09A95660F771F881FC2
:101EE000DAF7880F9695879597F9089597F99F6780
:101EF00080E870E060E008959FEF80EC0895002492
:101F00000A941616170618060906089500240A945E
:101F100012161306140605060895092E0394000CE4
:101F200011F4882352F0BB0F40F4BF2B11F460FF73
:101F300004C06F5F7F4F8F4F9F4F089557FD90589C
:101F4000440F551F59F05F3F71F04795880F97FB7D
:101F5000991F61F09F3F79F0879508951216130637
:101F60001406551FF2CF4695F1DF08C01616170666
:101F70001806991FF1CF869571056105089408959B
:101F8000E894BB2766277727CB0197F908950BD0F4
:101F9000C4CFB5DF28F0BADF18F0952309F0A6CF3B
:101FA000ABCF1124EECFCADFA0F3959FD1F3950FED
:101FB00050E0551F629FF001729FBB27F00DB11DCD
:101FC000639FAA27F00DB11DAA1F649F6627B00D5D
:101FD000A11D661F829F2227B00DA11D621F739F46
:101FE000B00DA11D621F839FA00D611D221F749F54
:101FF0003327A00D611D231F849F600D211D822F9B
:10200000762F6A2F11249F5750408AF0E1F08823E1
:102010004AF0EE0FFF1FBB1F661F771F881F9150EE
:102020005040A9F79E3F510570F060CFAACF5F3FA7
:10203000ECF3983EDCF3869577956795B795F79521
:10204000E7959F5FC1F7FE2B880F911D96958795A9
:1020500097F90895283008F027E03327DA01990F1F
:10206000311D87FD916000966105710539F432607C
:102070002E5F3D9330E32A95E1F708959F3F30F0BE
:1020800080387105610509F03C5F3C5F3D939130FC
:1020900008F08068911DDF93CF931F930F93FF92F9
:1020A000EF92192F987F9695E92F96959695E90FBF
:1020B000FF27E251FF4F99273327EE24FF24A70182
:1020C000E70105900894079428F4360FE71EF81EE0
:1020D000491F511D660F771F881F991F0694A1F78E
:1020E0000590079428F4E70EF81E491F561FC11DDE
:1020F000770F881F991F661F0694A1F70590079414
:1021000028F4F80E491F561FC71FD11D880F991FAD
:10211000661F771F0694A1F70590079420F4490FD6
:10212000561FC71FD81F990F661F771F881F069459
:10213000A9F784911095177041F0D695C7955795DA
:102140004795F794E7941A95C1F7E4E9F0E06894AD
:102150001590159135916591959105907FE2739554
:10216000E118F10A430B560BC90BD009C0F7E10C7B
:10217000F11E431F561FC91FD01D7EF4703311F48A
:102180008A95E6CFE894015030F0080F0AF4002752
:10219000021708F4202F2395022F7A3328F079E3D1
:1021A0007D932A95E9F710C07D932A9589F60694C8
:1021B00097956795379517951794E118F10A430B92
:1021C000560BC90BD00998F023957E9173957A33FD
:1021D00008F070E37C932013B8F77E9170617D93D3
:1021E00030F0839571E37D9370E32A95E1F7112434
:1021F000EF90FF900F911F91CF91DF91992787FD6D
:1022000090950895FC010590615070400110D8F739
:10221000809590958E0F9F1F0895FC01615070402E
:1022200001900110D8F7809590958E0F9F1F08950B
:102230000F931F93CF93DF93182F092FEB018B81FF
:1022400081FD03C08FEF9FEF20C082FF10C04E8141
:102250005F812C813D81421753077CF4E881F9812D
:102260009F012F5F3F4F39832883108306C0E88585
:10227000F985812F0995892B29F72E813F812F5FC1
:102280003F4F3F832E83812F902FDF91CF911F915E
:102290000F910895FA01AA27283051F1203181F1D8
:1022A000E8946F936E7F6E5F7F4F8F4F9F4FAF4F5E
:1022B000B1E03ED0B4E03CD0670F781F891F9A1F71
:1022C000A11D680F791F8A1F911DA11D6A0F711D25
:1022D000811D911DA11D20D009F468943F912AE031
:1022E000269F11243019305D3193DEF6CF01089519
:1022F000462F4770405D4193B3E00FD0C9F7F6CF4A
:10230000462F4F70405D4A3318F0495D31FD405211
:10231000419302D0A9F7EACFB4E0A69597958795A7
:1023200077956795BA95C9F7009761057105089586
:102330009B01AC010A2E0694579547953795279532
:10234000BA95C9F7620F731F841F951FA01D0895CA
:04235000F894FFCF2F
:1023540000000000300030001F003000000030009A
:102364003000E0FF600000003000300000F8900012
:10237400000030003000E007C000000030003000F2
:04238400FFFF010056
:00000001FF
